{
  "contractName": "Presale",
  "abi": [
    {
      "constant": false,
      "inputs": [
        {
          "name": "_startTime",
          "type": "uint256"
        },
        {
          "name": "_endTime",
          "type": "uint256"
        },
        {
          "name": "_cap",
          "type": "uint256"
        },
        {
          "name": "_vault",
          "type": "address"
        }
      ],
      "name": "initialize",
      "outputs": [],
      "payable": false,
      "stateMutability": "nonpayable",
      "type": "function"
    },
    {
      "constant": true,
      "inputs": [],
      "name": "rate",
      "outputs": [
        {
          "name": "",
          "type": "uint256"
        }
      ],
      "payable": false,
      "stateMutability": "view",
      "type": "function"
    },
    {
      "constant": true,
      "inputs": [],
      "name": "endTime",
      "outputs": [
        {
          "name": "",
          "type": "uint256"
        }
      ],
      "payable": false,
      "stateMutability": "view",
      "type": "function"
    },
    {
      "constant": true,
      "inputs": [],
      "name": "cap",
      "outputs": [
        {
          "name": "",
          "type": "uint256"
        }
      ],
      "payable": false,
      "stateMutability": "view",
      "type": "function"
    },
    {
      "constant": true,
      "inputs": [],
      "name": "isInitialized",
      "outputs": [
        {
          "name": "",
          "type": "bool"
        }
      ],
      "payable": false,
      "stateMutability": "view",
      "type": "function"
    },
    {
      "constant": false,
      "inputs": [
        {
          "name": "_investors",
          "type": "address[]"
        }
      ],
      "name": "whitelistInvestors",
      "outputs": [],
      "payable": false,
      "stateMutability": "nonpayable",
      "type": "function"
    },
    {
      "constant": true,
      "inputs": [],
      "name": "investorsLength",
      "outputs": [
        {
          "name": "",
          "type": "uint256"
        }
      ],
      "payable": false,
      "stateMutability": "view",
      "type": "function"
    },
    {
      "constant": true,
      "inputs": [],
      "name": "startTime",
      "outputs": [
        {
          "name": "",
          "type": "uint256"
        }
      ],
      "payable": false,
      "stateMutability": "view",
      "type": "function"
    },
    {
      "constant": true,
      "inputs": [],
      "name": "owner",
      "outputs": [
        {
          "name": "",
          "type": "address"
        }
      ],
      "payable": false,
      "stateMutability": "view",
      "type": "function"
    },
    {
      "constant": true,
      "inputs": [
        {
          "name": "",
          "type": "address"
        }
      ],
      "name": "whitelist",
      "outputs": [
        {
          "name": "",
          "type": "bool"
        }
      ],
      "payable": false,
      "stateMutability": "view",
      "type": "function"
    },
    {
      "constant": false,
      "inputs": [],
      "name": "buy",
      "outputs": [],
      "payable": true,
      "stateMutability": "payable",
      "type": "function"
    },
    {
      "constant": true,
      "inputs": [
        {
          "name": "",
          "type": "address"
        }
      ],
      "name": "investorBalances",
      "outputs": [
        {
          "name": "",
          "type": "uint256"
        }
      ],
      "payable": false,
      "stateMutability": "view",
      "type": "function"
    },
    {
      "constant": false,
      "inputs": [
        {
          "name": "_newInvestor",
          "type": "address"
        }
      ],
      "name": "whitelistInvestor",
      "outputs": [],
      "payable": false,
      "stateMutability": "nonpayable",
      "type": "function"
    },
    {
      "constant": false,
      "inputs": [
        {
          "name": "_token",
          "type": "address"
        }
      ],
      "name": "claimTokens",
      "outputs": [],
      "payable": false,
      "stateMutability": "nonpayable",
      "type": "function"
    },
    {
      "constant": true,
      "inputs": [],
      "name": "totalInvestedInWei",
      "outputs": [
        {
          "name": "",
          "type": "uint256"
        }
      ],
      "payable": false,
      "stateMutability": "view",
      "type": "function"
    },
    {
      "constant": false,
      "inputs": [
        {
          "name": "newOwner",
          "type": "address"
        }
      ],
      "name": "transferOwnership",
      "outputs": [],
      "payable": false,
      "stateMutability": "nonpayable",
      "type": "function"
    },
    {
      "constant": true,
      "inputs": [],
      "name": "vault",
      "outputs": [
        {
          "name": "",
          "type": "address"
        }
      ],
      "payable": false,
      "stateMutability": "view",
      "type": "function"
    },
    {
      "constant": false,
      "inputs": [
        {
          "name": "_investor",
          "type": "address"
        }
      ],
      "name": "blacklistInvestor",
      "outputs": [],
      "payable": false,
      "stateMutability": "nonpayable",
      "type": "function"
    },
    {
      "inputs": [],
      "payable": false,
      "stateMutability": "nonpayable",
      "type": "constructor"
    },
    {
      "payable": true,
      "stateMutability": "payable",
      "type": "fallback"
    },
    {
      "anonymous": false,
      "inputs": [
        {
          "indexed": true,
          "name": "previousOwner",
          "type": "address"
        },
        {
          "indexed": true,
          "name": "newOwner",
          "type": "address"
        }
      ],
      "name": "OwnershipTransferred",
      "type": "event"
    }
  ],
  "bytecode": "0x60606040526000600560006101000a81548160ff021916908315150217905550341561002a57600080fd5b336000806101000a81548173ffffffffffffffffffffffffffffffffffffffff021916908373ffffffffffffffffffffffffffffffffffffffff16021790555061105b806100796000396000f3006060604052600436106100fc576000357c0100000000000000000000000000000000000000000000000000000000900463ffffffff1680631f8d519d146101065780632c4e722e1461015a5780633197cbb614610183578063355274ea146101ac578063392e53cd146101d55780635613680a14610202578063594337a91461025c57806378e97925146102855780638da5cb5b146102ae5780639b19251a14610303578063a6f2ae3a14610354578063b29a61c11461035e578063c430bcda146103ab578063df8de3e7146103e4578063f117c9241461041d578063f2fde38b14610446578063fbfa77cf1461047f578063ffc1b038146104d4575b61010461050d565b005b341561011157600080fd5b610158600480803590602001909190803590602001909190803590602001909190803573ffffffffffffffffffffffffffffffffffffffff16906020019091905050610631565b005b341561016557600080fd5b61016d610775565b6040518082815260200191505060405180910390f35b341561018e57600080fd5b61019661077b565b6040518082815260200191505060405180910390f35b34156101b757600080fd5b6101bf610781565b6040518082815260200191505060405180910390f35b34156101e057600080fd5b6101e8610787565b604051808215151515815260200191505060405180910390f35b341561020d57600080fd5b61025a60048080359060200190820180359060200190808060200260200160405190810160405280939291908181526020018383602002808284378201915050505050509190505061079a565b005b341561026757600080fd5b61026f610907565b6040518082815260200191505060405180910390f35b341561029057600080fd5b61029861090d565b6040518082815260200191505060405180910390f35b34156102b957600080fd5b6102c1610913565b604051808273ffffffffffffffffffffffffffffffffffffffff1673ffffffffffffffffffffffffffffffffffffffff16815260200191505060405180910390f35b341561030e57600080fd5b61033a600480803573ffffffffffffffffffffffffffffffffffffffff16906020019091905050610938565b604051808215151515815260200191505060405180910390f35b61035c61050d565b005b341561036957600080fd5b610395600480803573ffffffffffffffffffffffffffffffffffffffff16906020019091905050610958565b6040518082815260200191505060405180910390f35b34156103b657600080fd5b6103e2600480803573ffffffffffffffffffffffffffffffffffffffff16906020019091905050610970565b005b34156103ef57600080fd5b61041b600480803573ffffffffffffffffffffffffffffffffffffffff16906020019091905050610a8c565b005b341561042857600080fd5b610430610d37565b6040518082815260200191505060405180910390f35b341561045157600080fd5b61047d600480803573ffffffffffffffffffffffffffffffffffffffff16906020019091905050610d3d565b005b341561048a57600080fd5b610492610e92565b604051808273ffffffffffffffffffffffffffffffffffffffff1673ffffffffffffffffffffffffffffffffffffffff16815260200191505060405180910390f35b34156104df57600080fd5b61050b600480803573ffffffffffffffffffffffffffffffffffffffff16906020019091905050610eb8565b005b6000600860003373ffffffffffffffffffffffffffffffffffffffff1673ffffffffffffffffffffffffffffffffffffffff16815260200190815260200160002060009054906101000a900460ff16151561056757600080fd5b60003411151561057657600080fd5b600560009054906101000a900460ff16151561059157600080fd5b60015442101580156105a557506002544211155b15156105b057600080fd5b6003543460065401111515156105c557600080fd5b33905034600760008373ffffffffffffffffffffffffffffffffffffffff1673ffffffffffffffffffffffffffffffffffffffff168152602001908152602001600020600082825401925050819055503460066000828254019250508190555061062e34610fcb565b50565b6000809054906101000a900473ffffffffffffffffffffffffffffffffffffffff1673ffffffffffffffffffffffffffffffffffffffff163373ffffffffffffffffffffffffffffffffffffffff1614151561068c57600080fd5b600560009054906101000a900460ff161515156106a857600080fd5b600084141515156106b857600080fd5b600083141515156106c857600080fd5b600082141515156106d857600080fd5b60008173ffffffffffffffffffffffffffffffffffffffff16141515156106fe57600080fd5b8360018190555082600281905550816003819055506001600560006101000a81548160ff02191690831515021790555080600a60006101000a81548173ffffffffffffffffffffffffffffffffffffffff021916908373ffffffffffffffffffffffffffffffffffffffff16021790555050505050565b60045481565b60025481565b60035481565b600560009054906101000a900460ff1681565b6000806000809054906101000a900473ffffffffffffffffffffffffffffffffffffffff1673ffffffffffffffffffffffffffffffffffffffff163373ffffffffffffffffffffffffffffffffffffffff161415156107f857600080fd5b60fa83511115151561080957600080fd5b600091505b82518260ff16101561090257828260ff1681518110151561082b57fe5b906020019060200201519050600860008273ffffffffffffffffffffffffffffffffffffffff1673ffffffffffffffffffffffffffffffffffffffff16815260200190815260200160002060009054906101000a900460ff1615156108f5576001600860008373ffffffffffffffffffffffffffffffffffffffff1673ffffffffffffffffffffffffffffffffffffffff16815260200190815260200160002060006101000a81548160ff0219169083151502179055506009600081548092919060010191905055505b818060010192505061080e565b505050565b60095481565b60015481565b6000809054906101000a900473ffffffffffffffffffffffffffffffffffffffff1681565b60086020528060005260406000206000915054906101000a900460ff1681565b60076020528060005260406000206000915090505481565b6000809054906101000a900473ffffffffffffffffffffffffffffffffffffffff1673ffffffffffffffffffffffffffffffffffffffff163373ffffffffffffffffffffffffffffffffffffffff161415156109cb57600080fd5b600860008273ffffffffffffffffffffffffffffffffffffffff1673ffffffffffffffffffffffffffffffffffffffff16815260200190815260200160002060009054906101000a900460ff161515610a89576001600860008373ffffffffffffffffffffffffffffffffffffffff1673ffffffffffffffffffffffffffffffffffffffff16815260200190815260200160002060006101000a81548160ff0219169083151502179055506009600081548092919060010191905055505b50565b6000806000809054906101000a900473ffffffffffffffffffffffffffffffffffffffff1673ffffffffffffffffffffffffffffffffffffffff163373ffffffffffffffffffffffffffffffffffffffff16141515610aea57600080fd5b60008373ffffffffffffffffffffffffffffffffffffffff161415610b86576000809054906101000a900473ffffffffffffffffffffffffffffffffffffffff1673ffffffffffffffffffffffffffffffffffffffff166108fc3073ffffffffffffffffffffffffffffffffffffffff16319081150290604051600060405180830381858888f193505050501515610b8157600080fd5b610d32565b8291508173ffffffffffffffffffffffffffffffffffffffff166370a08231306000604051602001526040518263ffffffff167c0100000000000000000000000000000000000000000000000000000000028152600401808273ffffffffffffffffffffffffffffffffffffffff1673ffffffffffffffffffffffffffffffffffffffff168152602001915050602060405180830381600087803b1515610c2c57600080fd5b6102c65a03f11515610c3d57600080fd5b5050506040518051905090508173ffffffffffffffffffffffffffffffffffffffff1663a9059cbb6000809054906101000a900473ffffffffffffffffffffffffffffffffffffffff16836000604051602001526040518363ffffffff167c0100000000000000000000000000000000000000000000000000000000028152600401808373ffffffffffffffffffffffffffffffffffffffff1673ffffffffffffffffffffffffffffffffffffffff16815260200182815260200192505050602060405180830381600087803b1515610d1557600080fd5b6102c65a03f11515610d2657600080fd5b50505060405180519050505b505050565b60065481565b6000809054906101000a900473ffffffffffffffffffffffffffffffffffffffff1673ffffffffffffffffffffffffffffffffffffffff163373ffffffffffffffffffffffffffffffffffffffff16141515610d9857600080fd5b600073ffffffffffffffffffffffffffffffffffffffff168173ffffffffffffffffffffffffffffffffffffffff1614151515610dd457600080fd5b8073ffffffffffffffffffffffffffffffffffffffff166000809054906101000a900473ffffffffffffffffffffffffffffffffffffffff1673ffffffffffffffffffffffffffffffffffffffff167f8be0079c531659141344cd1fd0a4f28419497f9722a3daafe3b4186f6b6457e060405160405180910390a3806000806101000a81548173ffffffffffffffffffffffffffffffffffffffff021916908373ffffffffffffffffffffffffffffffffffffffff16021790555050565b600a60009054906101000a900473ffffffffffffffffffffffffffffffffffffffff1681565b6000809054906101000a900473ffffffffffffffffffffffffffffffffffffffff1673ffffffffffffffffffffffffffffffffffffffff163373ffffffffffffffffffffffffffffffffffffffff16141515610f1357600080fd5b600860008273ffffffffffffffffffffffffffffffffffffffff1673ffffffffffffffffffffffffffffffffffffffff16815260200190815260200160002060009054906101000a900460ff1615610fc857600860008273ffffffffffffffffffffffffffffffffffffffff1673ffffffffffffffffffffffffffffffffffffffff16815260200190815260200160002060006101000a81549060ff0219169055600960008154809291906001900391905055505b50565b6000809054906101000a900473ffffffffffffffffffffffffffffffffffffffff1673ffffffffffffffffffffffffffffffffffffffff166108fc829081150290604051600060405180830381858888f19350505050151561102c57600080fd5b505600a165627a7a72305820a479bf0ec5b6baeb67334cf7f2433e91673f12d8e3f817e09f8b1af72a9352290029",
  "source": "import \"zeppelin-solidity/contracts/math/SafeMath.sol\";\nimport \"zeppelin-solidity/contracts/token/BasicToken.sol\";\nimport \"zeppelin-solidity/contracts/ownership/Ownable.sol\";\n\npragma solidity ^0.4.17;\n\ncontract Presale is Ownable {\n    uint256 public startTime;\n    uint256 public endTime;\n    uint256 public cap;\n    uint256 public rate;\n    bool public isInitialized = false;\n    uint256 public totalInvestedInWei;\n    mapping(address => uint256) public investorBalances;\n    mapping(address => bool) public whitelist;\n    uint256 public investorsLength;\n    address public vault;\n    \n    function () public payable {\n        buy();\n    }\n    \n    function Presale() public {\n    }\n    \n    function initialize(uint256 _startTime, uint256 _endTime, uint256 _cap, address _vault) public onlyOwner {\n        require(!isInitialized);\n        require(_startTime != 0);\n        require(_endTime != 0);\n        require(_cap != 0);\n        require(_vault != 0x0);\n        startTime = _startTime;\n        endTime = _endTime;\n        cap = _cap;\n        isInitialized = true;\n        vault = _vault;\n    }\n    \n    function buy() public payable {\n        require(whitelist[msg.sender]);\n        require(msg.value > 0);\n        require(isInitialized);\n        require(now >= startTime && now <= endTime);\n        require(totalInvestedInWei + msg.value <= cap);\n        address investor = msg.sender;\n        investorBalances[investor] += msg.value;\n        totalInvestedInWei += msg.value;\n        forwardFunds(msg.value);\n    }\n    \n    \n    function forwardFunds(uint256 _amount) internal {\n        owner.transfer(_amount);\n    }\n    \n    function claimTokens(address _token) public onlyOwner {\n        if (_token == 0x0) {\n            owner.transfer(this.balance);\n            return;\n        }\n    \n        BasicToken token = BasicToken(_token);\n        uint256 balance = token.balanceOf(this);\n        token.transfer(owner, balance);\n    }\n\n    function whitelistInvestor(address _newInvestor) public onlyOwner {\n        if(!whitelist[_newInvestor]) {\n            whitelist[_newInvestor] = true;\n            investorsLength++;\n        }\n    }\n    function whitelistInvestors(address[] _investors) public onlyOwner {\n        require(_investors.length <= 250);\n        for(uint8 i=0; i<_investors.length;i++) {\n            address newInvestor = _investors[i];\n            if(!whitelist[newInvestor]) {\n                whitelist[newInvestor] = true;\n                investorsLength++;\n            }\n        }\n    }\n    function blacklistInvestor(address _investor) public onlyOwner {\n        if(whitelist[_investor]) {\n            delete whitelist[_investor];\n            investorsLength--;\n        }\n    }\n}",
  "sourcePath": "/Users/rstorm/repos/presale-oracles/contracts/PresaleOracles.sol",
  "compiler": {
    "name": "solc",
    "version": "0.4.18+commit.9cf6e910.Emscripten.clang"
  },
  "schemaVersion": "1.0.1",
  "updatedAt": "2017-11-10T01:08:29.866Z"
}