{
  "contractName": "PresaleOracles",
  "abi": [
    {
      "constant": true,
      "inputs": [],
      "name": "rate",
      "outputs": [
        {
          "name": "",
          "type": "uint256"
        }
      ],
      "payable": false,
      "stateMutability": "view",
      "type": "function"
    },
    {
      "constant": true,
      "inputs": [],
      "name": "endTime",
      "outputs": [
        {
          "name": "",
          "type": "uint256"
        }
      ],
      "payable": false,
      "stateMutability": "view",
      "type": "function"
    },
    {
      "constant": true,
      "inputs": [],
      "name": "cap",
      "outputs": [
        {
          "name": "",
          "type": "uint256"
        }
      ],
      "payable": false,
      "stateMutability": "view",
      "type": "function"
    },
    {
      "constant": true,
      "inputs": [],
      "name": "isInitialized",
      "outputs": [
        {
          "name": "",
          "type": "bool"
        }
      ],
      "payable": false,
      "stateMutability": "view",
      "type": "function"
    },
    {
      "constant": false,
      "inputs": [],
      "name": "Presale",
      "outputs": [],
      "payable": false,
      "stateMutability": "nonpayable",
      "type": "function"
    },
    {
      "constant": false,
      "inputs": [
        {
          "name": "_investors",
          "type": "address[]"
        }
      ],
      "name": "whitelistInvestors",
      "outputs": [],
      "payable": false,
      "stateMutability": "nonpayable",
      "type": "function"
    },
    {
      "constant": true,
      "inputs": [],
      "name": "investorsLength",
      "outputs": [
        {
          "name": "",
          "type": "uint256"
        }
      ],
      "payable": false,
      "stateMutability": "view",
      "type": "function"
    },
    {
      "constant": true,
      "inputs": [
        {
          "name": "_amount",
          "type": "uint256"
        }
      ],
      "name": "isValidPurchase",
      "outputs": [
        {
          "name": "",
          "type": "bool"
        }
      ],
      "payable": false,
      "stateMutability": "view",
      "type": "function"
    },
    {
      "constant": true,
      "inputs": [],
      "name": "startTime",
      "outputs": [
        {
          "name": "",
          "type": "uint256"
        }
      ],
      "payable": false,
      "stateMutability": "view",
      "type": "function"
    },
    {
      "constant": true,
      "inputs": [],
      "name": "owner",
      "outputs": [
        {
          "name": "",
          "type": "address"
        }
      ],
      "payable": false,
      "stateMutability": "view",
      "type": "function"
    },
    {
      "constant": true,
      "inputs": [],
      "name": "minimumContribution",
      "outputs": [
        {
          "name": "",
          "type": "uint256"
        }
      ],
      "payable": false,
      "stateMutability": "view",
      "type": "function"
    },
    {
      "constant": true,
      "inputs": [
        {
          "name": "",
          "type": "address"
        }
      ],
      "name": "whitelist",
      "outputs": [
        {
          "name": "",
          "type": "bool"
        }
      ],
      "payable": false,
      "stateMutability": "view",
      "type": "function"
    },
    {
      "constant": false,
      "inputs": [],
      "name": "buy",
      "outputs": [],
      "payable": true,
      "stateMutability": "payable",
      "type": "function"
    },
    {
      "constant": true,
      "inputs": [
        {
          "name": "",
          "type": "address"
        }
      ],
      "name": "investorBalances",
      "outputs": [
        {
          "name": "",
          "type": "uint256"
        }
      ],
      "payable": false,
      "stateMutability": "view",
      "type": "function"
    },
    {
      "constant": false,
      "inputs": [
        {
          "name": "_newInvestor",
          "type": "address"
        }
      ],
      "name": "whitelistInvestor",
      "outputs": [],
      "payable": false,
      "stateMutability": "nonpayable",
      "type": "function"
    },
    {
      "constant": false,
      "inputs": [
        {
          "name": "_startTime",
          "type": "uint256"
        },
        {
          "name": "_endTime",
          "type": "uint256"
        },
        {
          "name": "_cap",
          "type": "uint256"
        },
        {
          "name": "_minimumContribution",
          "type": "uint256"
        },
        {
          "name": "_vault",
          "type": "address"
        }
      ],
      "name": "initialize",
      "outputs": [],
      "payable": false,
      "stateMutability": "nonpayable",
      "type": "function"
    },
    {
      "constant": false,
      "inputs": [
        {
          "name": "_token",
          "type": "address"
        }
      ],
      "name": "claimTokens",
      "outputs": [],
      "payable": false,
      "stateMutability": "nonpayable",
      "type": "function"
    },
    {
      "constant": true,
      "inputs": [],
      "name": "totalInvestedInWei",
      "outputs": [
        {
          "name": "",
          "type": "uint256"
        }
      ],
      "payable": false,
      "stateMutability": "view",
      "type": "function"
    },
    {
      "constant": false,
      "inputs": [
        {
          "name": "newOwner",
          "type": "address"
        }
      ],
      "name": "transferOwnership",
      "outputs": [],
      "payable": false,
      "stateMutability": "nonpayable",
      "type": "function"
    },
    {
      "constant": true,
      "inputs": [],
      "name": "vault",
      "outputs": [
        {
          "name": "",
          "type": "address"
        }
      ],
      "payable": false,
      "stateMutability": "view",
      "type": "function"
    },
    {
      "constant": false,
      "inputs": [
        {
          "name": "_investor",
          "type": "address"
        }
      ],
      "name": "blacklistInvestor",
      "outputs": [],
      "payable": false,
      "stateMutability": "nonpayable",
      "type": "function"
    },
    {
      "payable": true,
      "stateMutability": "payable",
      "type": "fallback"
    },
    {
      "anonymous": false,
      "inputs": [
        {
          "indexed": true,
          "name": "previousOwner",
          "type": "address"
        },
        {
          "indexed": true,
          "name": "newOwner",
          "type": "address"
        }
      ],
      "name": "OwnershipTransferred",
      "type": "event"
    }
  ],
  "bytecode": "0x60606040526000600a60146101000a81548160ff021916908315150217905550336000806101000a81548173ffffffffffffffffffffffffffffffffffffffff021916908373ffffffffffffffffffffffffffffffffffffffff1602179055506111f68061006e6000396000f30060606040526004361061011d576000357c0100000000000000000000000000000000000000000000000000000000900463ffffffff1680632c4e722e146101275780633197cbb614610150578063355274ea14610179578063392e53cd146101a25780635036d610146101cf5780635613680a146101e4578063594337a91461021257806361e214d81461023b57806378e97925146102765780638da5cb5b1461029f578063937e09b1146102f45780639b19251a1461031d578063a6f2ae3a1461036e578063b29a61c114610378578063c430bcda146103c5578063ccd65296146103fe578063df8de3e71461045b578063f117c92414610494578063f2fde38b146104bd578063fbfa77cf146104f6578063ffc1b0381461054b575b610125610584565b005b341561013257600080fd5b61013a6106a6565b6040518082815260200191505060405180910390f35b341561015b57600080fd5b6101636106ac565b6040518082815260200191505060405180910390f35b341561018457600080fd5b61018c6106b2565b6040518082815260200191505060405180910390f35b34156101ad57600080fd5b6101b56106b8565b604051808215151515815260200191505060405180910390f35b34156101da57600080fd5b6101e26106cb565b005b34156101ef57600080fd5b610210600480803590602001908201803590602001919091929050506106cd565b005b341561021d57600080fd5b610225610852565b6040518082815260200191505060405180910390f35b341561024657600080fd5b61025c6004808035906020019091905050610858565b604051808215151515815260200191505060405180910390f35b341561028157600080fd5b6102896108f6565b6040518082815260200191505060405180910390f35b34156102aa57600080fd5b6102b26108fc565b604051808273ffffffffffffffffffffffffffffffffffffffff1673ffffffffffffffffffffffffffffffffffffffff16815260200191505060405180910390f35b34156102ff57600080fd5b610307610921565b6040518082815260200191505060405180910390f35b341561032857600080fd5b610354600480803573ffffffffffffffffffffffffffffffffffffffff16906020019091905050610927565b604051808215151515815260200191505060405180910390f35b610376610584565b005b341561038357600080fd5b6103af600480803573ffffffffffffffffffffffffffffffffffffffff16906020019091905050610947565b6040518082815260200191505060405180910390f35b34156103d057600080fd5b6103fc600480803573ffffffffffffffffffffffffffffffffffffffff1690602001909190505061095f565b005b341561040957600080fd5b610459600480803590602001909190803590602001909190803590602001909190803590602001909190803573ffffffffffffffffffffffffffffffffffffffff16906020019091905050610a7b565b005b341561046657600080fd5b610492600480803573ffffffffffffffffffffffffffffffffffffffff16906020019091905050610bf3565b005b341561049f57600080fd5b6104a7610e9e565b6040518082815260200191505060405180910390f35b34156104c857600080fd5b6104f4600480803573ffffffffffffffffffffffffffffffffffffffff16906020019091905050610ea4565b005b341561050157600080fd5b610509610ff9565b604051808273ffffffffffffffffffffffffffffffffffffffff1673ffffffffffffffffffffffffffffffffffffffff16815260200191505060405180910390f35b341561055657600080fd5b610582600480803573ffffffffffffffffffffffffffffffffffffffff1690602001909190505061101f565b005b6000600860003373ffffffffffffffffffffffffffffffffffffffff1673ffffffffffffffffffffffffffffffffffffffff16815260200190815260200160002060009054906101000a900460ff1615156105de57600080fd5b6105e734610858565b15156105f257600080fd5b600a60149054906101000a900460ff16151561060d57600080fd5b60015461061861113f565b1015801561062f575060025461062c61113f565b11155b151561063a57600080fd5b33905034600760008373ffffffffffffffffffffffffffffffffffffffff1673ffffffffffffffffffffffffffffffffffffffff16815260200190815260200160002060008282540192505081905550346005600082825401925050819055506106a334611147565b50565b60045481565b60025481565b60035481565b600a60149054906101000a900460ff1681565b565b6000806000809054906101000a900473ffffffffffffffffffffffffffffffffffffffff1673ffffffffffffffffffffffffffffffffffffffff163373ffffffffffffffffffffffffffffffffffffffff1614151561072b57600080fd5b60fa848490501115151561073e57600080fd5b600091505b838390508260ff16101561084c5783838360ff16818110151561076257fe5b9050602002013573ffffffffffffffffffffffffffffffffffffffff169050600860008273ffffffffffffffffffffffffffffffffffffffff1673ffffffffffffffffffffffffffffffffffffffff16815260200190815260200160002060009054906101000a900460ff16151561083f576001600860008373ffffffffffffffffffffffffffffffffffffffff1673ffffffffffffffffffffffffffffffffffffffff16815260200190815260200160002060006101000a81548160ff0219169083151502179055506009600081548092919060010191905055505b8180600101925050610743565b50505050565b60095481565b6000806000806000851192506006546108b986600760003373ffffffffffffffffffffffffffffffffffffffff1673ffffffffffffffffffffffffffffffffffffffff168152602001908152602001600020546111ac90919063ffffffff16565b101591506003546108d5866005546111ac90919063ffffffff16565b111590508180156108e35750805b80156108ec5750825b9350505050919050565b60015481565b6000809054906101000a900473ffffffffffffffffffffffffffffffffffffffff1681565b60065481565b60086020528060005260406000206000915054906101000a900460ff1681565b60076020528060005260406000206000915090505481565b6000809054906101000a900473ffffffffffffffffffffffffffffffffffffffff1673ffffffffffffffffffffffffffffffffffffffff163373ffffffffffffffffffffffffffffffffffffffff161415156109ba57600080fd5b600860008273ffffffffffffffffffffffffffffffffffffffff1673ffffffffffffffffffffffffffffffffffffffff16815260200190815260200160002060009054906101000a900460ff161515610a78576001600860008373ffffffffffffffffffffffffffffffffffffffff1673ffffffffffffffffffffffffffffffffffffffff16815260200190815260200160002060006101000a81548160ff0219169083151502179055506009600081548092919060010191905055505b50565b6000809054906101000a900473ffffffffffffffffffffffffffffffffffffffff1673ffffffffffffffffffffffffffffffffffffffff163373ffffffffffffffffffffffffffffffffffffffff16141515610ad657600080fd5b600a60149054906101000a900460ff16151515610af257600080fd5b60008514151515610b0257600080fd5b60008414151515610b1257600080fd5b8484111515610b2057600080fd5b60008314151515610b3057600080fd5b60008214151515610b4057600080fd5b60008173ffffffffffffffffffffffffffffffffffffffff1614151515610b6657600080fd5b8183111515610b7457600080fd5b8460018190555083600281905550826003819055506001600a60146101000a81548160ff0219169083151502179055508160068190555080600a60006101000a81548173ffffffffffffffffffffffffffffffffffffffff021916908373ffffffffffffffffffffffffffffffffffffffff1602179055505050505050565b6000806000809054906101000a900473ffffffffffffffffffffffffffffffffffffffff1673ffffffffffffffffffffffffffffffffffffffff163373ffffffffffffffffffffffffffffffffffffffff16141515610c5157600080fd5b60008373ffffffffffffffffffffffffffffffffffffffff161415610ced576000809054906101000a900473ffffffffffffffffffffffffffffffffffffffff1673ffffffffffffffffffffffffffffffffffffffff166108fc3073ffffffffffffffffffffffffffffffffffffffff16319081150290604051600060405180830381858888f193505050501515610ce857600080fd5b610e99565b8291508173ffffffffffffffffffffffffffffffffffffffff166370a08231306000604051602001526040518263ffffffff167c0100000000000000000000000000000000000000000000000000000000028152600401808273ffffffffffffffffffffffffffffffffffffffff1673ffffffffffffffffffffffffffffffffffffffff168152602001915050602060405180830381600087803b1515610d9357600080fd5b6102c65a03f11515610da457600080fd5b5050506040518051905090508173ffffffffffffffffffffffffffffffffffffffff1663a9059cbb6000809054906101000a900473ffffffffffffffffffffffffffffffffffffffff16836000604051602001526040518363ffffffff167c0100000000000000000000000000000000000000000000000000000000028152600401808373ffffffffffffffffffffffffffffffffffffffff1673ffffffffffffffffffffffffffffffffffffffff16815260200182815260200192505050602060405180830381600087803b1515610e7c57600080fd5b6102c65a03f11515610e8d57600080fd5b50505060405180519050505b505050565b60055481565b6000809054906101000a900473ffffffffffffffffffffffffffffffffffffffff1673ffffffffffffffffffffffffffffffffffffffff163373ffffffffffffffffffffffffffffffffffffffff16141515610eff57600080fd5b600073ffffffffffffffffffffffffffffffffffffffff168173ffffffffffffffffffffffffffffffffffffffff1614151515610f3b57600080fd5b8073ffffffffffffffffffffffffffffffffffffffff166000809054906101000a900473ffffffffffffffffffffffffffffffffffffffff1673ffffffffffffffffffffffffffffffffffffffff167f8be0079c531659141344cd1fd0a4f28419497f9722a3daafe3b4186f6b6457e060405160405180910390a3806000806101000a81548173ffffffffffffffffffffffffffffffffffffffff021916908373ffffffffffffffffffffffffffffffffffffffff16021790555050565b600a60009054906101000a900473ffffffffffffffffffffffffffffffffffffffff1681565b6000809054906101000a900473ffffffffffffffffffffffffffffffffffffffff1673ffffffffffffffffffffffffffffffffffffffff163373ffffffffffffffffffffffffffffffffffffffff1614151561107a57600080fd5b600860008273ffffffffffffffffffffffffffffffffffffffff1673ffffffffffffffffffffffffffffffffffffffff16815260200190815260200160002060009054906101000a900460ff161561113c57600860008273ffffffffffffffffffffffffffffffffffffffff1673ffffffffffffffffffffffffffffffffffffffff16815260200190815260200160002060006101000a81549060ff0219169055600060095414151561113b57600960008154809291906001900391905055505b5b50565b600042905090565b600a60009054906101000a900473ffffffffffffffffffffffffffffffffffffffff1673ffffffffffffffffffffffffffffffffffffffff166108fc829081150290604051600060405180830381858888f1935050505015156111a957600080fd5b50565b60008082840190508381101515156111c057fe5b80915050929150505600a165627a7a72305820dd173f86620fd63c5ee305ad2a6beaed4e5b13067268ce41d050675e03de9c230029",
  "source": "import \"zeppelin-solidity/contracts/math/SafeMath.sol\";\nimport \"zeppelin-solidity/contracts/token/BasicToken.sol\";\nimport \"zeppelin-solidity/contracts/ownership/Ownable.sol\";\n\npragma solidity ^0.4.17;\n\ncontract PresaleOracles is Ownable {\n/*\n * PresaleOracles\n * Simple Presale contract\n * built by github.com/rstormsf Roman Storm\n */\n    using SafeMath for uint256;\n    uint256 public startTime;\n    uint256 public endTime;\n    uint256 public cap;\n    uint256 public rate;\n    uint256 public totalInvestedInWei;\n    uint256 public minimumContribution;\n    mapping(address => uint256) public investorBalances;\n    mapping(address => bool) public whitelist;\n    uint256 public investorsLength;\n    address public vault;\n    bool public isInitialized = false;\n    // TESTED by Roman Storm\n    function () public payable {\n        buy();\n    }\n    //TESTED by Roman Storm\n    function Presale() public {\n    }\n    //TESTED by Roman Storm\n    function initialize(uint256 _startTime, uint256 _endTime, uint256 _cap, uint256 _minimumContribution, address _vault) public onlyOwner {\n        require(!isInitialized);\n        require(_startTime != 0);\n        require(_endTime != 0);\n        require(_endTime > _startTime);\n        require(_cap != 0);\n        require(_minimumContribution != 0);\n        require(_vault != 0x0);\n        require(_cap > _minimumContribution);\n        startTime = _startTime;\n        endTime = _endTime;\n        cap = _cap;\n        isInitialized = true;\n        minimumContribution = _minimumContribution;\n        vault = _vault;\n    }\n    //TESTED by Roman Storm\n    function buy() public payable {\n        require(whitelist[msg.sender]);\n        require(isValidPurchase(msg.value));\n        require(isInitialized);\n        require(getTime() >= startTime && getTime() <= endTime);\n        address investor = msg.sender;\n        investorBalances[investor] += msg.value;\n        totalInvestedInWei += msg.value;\n        forwardFunds(msg.value);\n    }\n    \n    //TESTED by Roman Storm\n    function forwardFunds(uint256 _amount) internal {\n        vault.transfer(_amount);\n    }\n    //TESTED by Roman Storm\n    function claimTokens(address _token) public onlyOwner {\n        if (_token == 0x0) {\n            owner.transfer(this.balance);\n            return;\n        }\n    \n        BasicToken token = BasicToken(_token);\n        uint256 balance = token.balanceOf(this);\n        token.transfer(owner, balance);\n    }\n\n    function getTime() internal view returns(uint256) {\n        return now;\n    }\n    //TESTED by Roman Storm\n    function isValidPurchase(uint256 _amount) public view returns(bool) {\n        bool nonZero = _amount > 0;\n        bool hasMinimumAmount = investorBalances[msg.sender].add(_amount) >= minimumContribution;\n        bool withinCap = totalInvestedInWei.add(_amount) <= cap;\n        return hasMinimumAmount && withinCap && nonZero;\n    }\n    //TESTED by Roman Storm\n    function whitelistInvestor(address _newInvestor) public onlyOwner {\n        if(!whitelist[_newInvestor]) {\n            whitelist[_newInvestor] = true;\n            investorsLength++;\n        }\n    }\n    //TESTED by Roman Storm\n    function whitelistInvestors(address[] _investors) external onlyOwner {\n        require(_investors.length <= 250);\n        for(uint8 i=0; i<_investors.length;i++) {\n            address newInvestor = _investors[i];\n            if(!whitelist[newInvestor]) {\n                whitelist[newInvestor] = true;\n                investorsLength++;\n            }\n        }\n    }\n    function blacklistInvestor(address _investor) public onlyOwner {\n        if(whitelist[_investor]) {\n            delete whitelist[_investor];\n            if(investorsLength != 0) {\n                investorsLength--;\n            }\n        }\n    }\n}",
  "sourcePath": "/Users/rstorm/repos/presale-oracles/contracts/PresaleOracles.sol",
  "compiler": {
    "name": "solc",
    "version": "0.4.18+commit.9cf6e910.Emscripten.clang"
  },
  "schemaVersion": "1.0.1",
  "updatedAt": "2017-11-12T02:35:24.158Z"
}