{
  "contractName": "PresaleOracles",
  "abi": [
    {
      "constant": false,
      "inputs": [
        {
          "name": "_startTime",
          "type": "uint256"
        },
        {
          "name": "_endTime",
          "type": "uint256"
        },
        {
          "name": "_cap",
          "type": "uint256"
        },
        {
          "name": "_vault",
          "type": "address"
        }
      ],
      "name": "initialize",
      "outputs": [],
      "payable": false,
      "stateMutability": "nonpayable",
      "type": "function"
    },
    {
      "constant": true,
      "inputs": [],
      "name": "rate",
      "outputs": [
        {
          "name": "",
          "type": "uint256"
        }
      ],
      "payable": false,
      "stateMutability": "view",
      "type": "function"
    },
    {
      "constant": true,
      "inputs": [],
      "name": "endTime",
      "outputs": [
        {
          "name": "",
          "type": "uint256"
        }
      ],
      "payable": false,
      "stateMutability": "view",
      "type": "function"
    },
    {
      "constant": true,
      "inputs": [],
      "name": "cap",
      "outputs": [
        {
          "name": "",
          "type": "uint256"
        }
      ],
      "payable": false,
      "stateMutability": "view",
      "type": "function"
    },
    {
      "constant": true,
      "inputs": [],
      "name": "isInitialized",
      "outputs": [
        {
          "name": "",
          "type": "bool"
        }
      ],
      "payable": false,
      "stateMutability": "view",
      "type": "function"
    },
    {
      "constant": false,
      "inputs": [],
      "name": "Presale",
      "outputs": [],
      "payable": false,
      "stateMutability": "nonpayable",
      "type": "function"
    },
    {
      "constant": false,
      "inputs": [
        {
          "name": "_investors",
          "type": "address[]"
        }
      ],
      "name": "whitelistInvestors",
      "outputs": [],
      "payable": false,
      "stateMutability": "nonpayable",
      "type": "function"
    },
    {
      "constant": true,
      "inputs": [],
      "name": "investorsLength",
      "outputs": [
        {
          "name": "",
          "type": "uint256"
        }
      ],
      "payable": false,
      "stateMutability": "view",
      "type": "function"
    },
    {
      "constant": true,
      "inputs": [],
      "name": "startTime",
      "outputs": [
        {
          "name": "",
          "type": "uint256"
        }
      ],
      "payable": false,
      "stateMutability": "view",
      "type": "function"
    },
    {
      "constant": true,
      "inputs": [],
      "name": "owner",
      "outputs": [
        {
          "name": "",
          "type": "address"
        }
      ],
      "payable": false,
      "stateMutability": "view",
      "type": "function"
    },
    {
      "constant": true,
      "inputs": [
        {
          "name": "",
          "type": "address"
        }
      ],
      "name": "whitelist",
      "outputs": [
        {
          "name": "",
          "type": "bool"
        }
      ],
      "payable": false,
      "stateMutability": "view",
      "type": "function"
    },
    {
      "constant": false,
      "inputs": [],
      "name": "buy",
      "outputs": [],
      "payable": true,
      "stateMutability": "payable",
      "type": "function"
    },
    {
      "constant": true,
      "inputs": [
        {
          "name": "",
          "type": "address"
        }
      ],
      "name": "investorBalances",
      "outputs": [
        {
          "name": "",
          "type": "uint256"
        }
      ],
      "payable": false,
      "stateMutability": "view",
      "type": "function"
    },
    {
      "constant": false,
      "inputs": [
        {
          "name": "_newInvestor",
          "type": "address"
        }
      ],
      "name": "whitelistInvestor",
      "outputs": [],
      "payable": false,
      "stateMutability": "nonpayable",
      "type": "function"
    },
    {
      "constant": false,
      "inputs": [
        {
          "name": "_token",
          "type": "address"
        }
      ],
      "name": "claimTokens",
      "outputs": [],
      "payable": false,
      "stateMutability": "nonpayable",
      "type": "function"
    },
    {
      "constant": true,
      "inputs": [],
      "name": "totalInvestedInWei",
      "outputs": [
        {
          "name": "",
          "type": "uint256"
        }
      ],
      "payable": false,
      "stateMutability": "view",
      "type": "function"
    },
    {
      "constant": false,
      "inputs": [
        {
          "name": "newOwner",
          "type": "address"
        }
      ],
      "name": "transferOwnership",
      "outputs": [],
      "payable": false,
      "stateMutability": "nonpayable",
      "type": "function"
    },
    {
      "constant": true,
      "inputs": [],
      "name": "vault",
      "outputs": [
        {
          "name": "",
          "type": "address"
        }
      ],
      "payable": false,
      "stateMutability": "view",
      "type": "function"
    },
    {
      "constant": false,
      "inputs": [
        {
          "name": "_investor",
          "type": "address"
        }
      ],
      "name": "blacklistInvestor",
      "outputs": [],
      "payable": false,
      "stateMutability": "nonpayable",
      "type": "function"
    },
    {
      "payable": true,
      "stateMutability": "payable",
      "type": "fallback"
    },
    {
      "anonymous": false,
      "inputs": [
        {
          "indexed": true,
          "name": "previousOwner",
          "type": "address"
        },
        {
          "indexed": true,
          "name": "newOwner",
          "type": "address"
        }
      ],
      "name": "OwnershipTransferred",
      "type": "event"
    }
  ],
  "bytecode": "0x60606040526000600560006101000a81548160ff021916908315150217905550336000806101000a81548173ffffffffffffffffffffffffffffffffffffffff021916908373ffffffffffffffffffffffffffffffffffffffff16021790555061109b8061006e6000396000f300606060405260043610610107576000357c0100000000000000000000000000000000000000000000000000000000900463ffffffff1680631f8d519d146101115780632c4e722e146101655780633197cbb61461018e578063355274ea146101b7578063392e53cd146101e05780635036d6101461020d5780635613680a14610222578063594337a91461025057806378e97925146102795780638da5cb5b146102a25780639b19251a146102f7578063a6f2ae3a14610348578063b29a61c114610352578063c430bcda1461039f578063df8de3e7146103d8578063f117c92414610411578063f2fde38b1461043a578063fbfa77cf14610473578063ffc1b038146104c8575b61010f610501565b005b341561011c57600080fd5b610163600480803590602001909190803590602001909190803590602001909190803573ffffffffffffffffffffffffffffffffffffffff16906020019091905050610633565b005b341561017057600080fd5b610178610785565b6040518082815260200191505060405180910390f35b341561019957600080fd5b6101a161078b565b6040518082815260200191505060405180910390f35b34156101c257600080fd5b6101ca610791565b6040518082815260200191505060405180910390f35b34156101eb57600080fd5b6101f3610797565b604051808215151515815260200191505060405180910390f35b341561021857600080fd5b6102206107aa565b005b341561022d57600080fd5b61024e600480803590602001908201803590602001919091929050506107ac565b005b341561025b57600080fd5b610263610931565b6040518082815260200191505060405180910390f35b341561028457600080fd5b61028c610937565b6040518082815260200191505060405180910390f35b34156102ad57600080fd5b6102b561093d565b604051808273ffffffffffffffffffffffffffffffffffffffff1673ffffffffffffffffffffffffffffffffffffffff16815260200191505060405180910390f35b341561030257600080fd5b61032e600480803573ffffffffffffffffffffffffffffffffffffffff16906020019091905050610962565b604051808215151515815260200191505060405180910390f35b610350610501565b005b341561035d57600080fd5b610389600480803573ffffffffffffffffffffffffffffffffffffffff16906020019091905050610982565b6040518082815260200191505060405180910390f35b34156103aa57600080fd5b6103d6600480803573ffffffffffffffffffffffffffffffffffffffff1690602001909190505061099a565b005b34156103e357600080fd5b61040f600480803573ffffffffffffffffffffffffffffffffffffffff16906020019091905050610ab6565b005b341561041c57600080fd5b610424610d61565b6040518082815260200191505060405180910390f35b341561044557600080fd5b610471600480803573ffffffffffffffffffffffffffffffffffffffff16906020019091905050610d67565b005b341561047e57600080fd5b610486610ebc565b604051808273ffffffffffffffffffffffffffffffffffffffff1673ffffffffffffffffffffffffffffffffffffffff16815260200191505060405180910390f35b34156104d357600080fd5b6104ff600480803573ffffffffffffffffffffffffffffffffffffffff16906020019091905050610ee2565b005b6000600860003373ffffffffffffffffffffffffffffffffffffffff1673ffffffffffffffffffffffffffffffffffffffff16815260200190815260200160002060009054906101000a900460ff16151561055b57600080fd5b60003411151561056a57600080fd5b600560009054906101000a900460ff16151561058557600080fd5b600154610590611002565b101580156105a757506002546105a4611002565b11155b15156105b257600080fd5b6003543460065401111515156105c757600080fd5b33905034600760008373ffffffffffffffffffffffffffffffffffffffff1673ffffffffffffffffffffffffffffffffffffffff16815260200190815260200160002060008282540192505081905550346006600082825401925050819055506106303461100a565b50565b6000809054906101000a900473ffffffffffffffffffffffffffffffffffffffff1673ffffffffffffffffffffffffffffffffffffffff163373ffffffffffffffffffffffffffffffffffffffff1614151561068e57600080fd5b600560009054906101000a900460ff161515156106aa57600080fd5b600084141515156106ba57600080fd5b600083141515156106ca57600080fd5b83831115156106d857600080fd5b600082141515156106e857600080fd5b60008173ffffffffffffffffffffffffffffffffffffffff161415151561070e57600080fd5b8360018190555082600281905550816003819055506001600560006101000a81548160ff02191690831515021790555080600a60006101000a81548173ffffffffffffffffffffffffffffffffffffffff021916908373ffffffffffffffffffffffffffffffffffffffff16021790555050505050565b60045481565b60025481565b60035481565b600560009054906101000a900460ff1681565b565b6000806000809054906101000a900473ffffffffffffffffffffffffffffffffffffffff1673ffffffffffffffffffffffffffffffffffffffff163373ffffffffffffffffffffffffffffffffffffffff1614151561080a57600080fd5b60fa848490501115151561081d57600080fd5b600091505b838390508260ff16101561092b5783838360ff16818110151561084157fe5b9050602002013573ffffffffffffffffffffffffffffffffffffffff169050600860008273ffffffffffffffffffffffffffffffffffffffff1673ffffffffffffffffffffffffffffffffffffffff16815260200190815260200160002060009054906101000a900460ff16151561091e576001600860008373ffffffffffffffffffffffffffffffffffffffff1673ffffffffffffffffffffffffffffffffffffffff16815260200190815260200160002060006101000a81548160ff0219169083151502179055506009600081548092919060010191905055505b8180600101925050610822565b50505050565b60095481565b60015481565b6000809054906101000a900473ffffffffffffffffffffffffffffffffffffffff1681565b60086020528060005260406000206000915054906101000a900460ff1681565b60076020528060005260406000206000915090505481565b6000809054906101000a900473ffffffffffffffffffffffffffffffffffffffff1673ffffffffffffffffffffffffffffffffffffffff163373ffffffffffffffffffffffffffffffffffffffff161415156109f557600080fd5b600860008273ffffffffffffffffffffffffffffffffffffffff1673ffffffffffffffffffffffffffffffffffffffff16815260200190815260200160002060009054906101000a900460ff161515610ab3576001600860008373ffffffffffffffffffffffffffffffffffffffff1673ffffffffffffffffffffffffffffffffffffffff16815260200190815260200160002060006101000a81548160ff0219169083151502179055506009600081548092919060010191905055505b50565b6000806000809054906101000a900473ffffffffffffffffffffffffffffffffffffffff1673ffffffffffffffffffffffffffffffffffffffff163373ffffffffffffffffffffffffffffffffffffffff16141515610b1457600080fd5b60008373ffffffffffffffffffffffffffffffffffffffff161415610bb0576000809054906101000a900473ffffffffffffffffffffffffffffffffffffffff1673ffffffffffffffffffffffffffffffffffffffff166108fc3073ffffffffffffffffffffffffffffffffffffffff16319081150290604051600060405180830381858888f193505050501515610bab57600080fd5b610d5c565b8291508173ffffffffffffffffffffffffffffffffffffffff166370a08231306000604051602001526040518263ffffffff167c0100000000000000000000000000000000000000000000000000000000028152600401808273ffffffffffffffffffffffffffffffffffffffff1673ffffffffffffffffffffffffffffffffffffffff168152602001915050602060405180830381600087803b1515610c5657600080fd5b6102c65a03f11515610c6757600080fd5b5050506040518051905090508173ffffffffffffffffffffffffffffffffffffffff1663a9059cbb6000809054906101000a900473ffffffffffffffffffffffffffffffffffffffff16836000604051602001526040518363ffffffff167c0100000000000000000000000000000000000000000000000000000000028152600401808373ffffffffffffffffffffffffffffffffffffffff1673ffffffffffffffffffffffffffffffffffffffff16815260200182815260200192505050602060405180830381600087803b1515610d3f57600080fd5b6102c65a03f11515610d5057600080fd5b50505060405180519050505b505050565b60065481565b6000809054906101000a900473ffffffffffffffffffffffffffffffffffffffff1673ffffffffffffffffffffffffffffffffffffffff163373ffffffffffffffffffffffffffffffffffffffff16141515610dc257600080fd5b600073ffffffffffffffffffffffffffffffffffffffff168173ffffffffffffffffffffffffffffffffffffffff1614151515610dfe57600080fd5b8073ffffffffffffffffffffffffffffffffffffffff166000809054906101000a900473ffffffffffffffffffffffffffffffffffffffff1673ffffffffffffffffffffffffffffffffffffffff167f8be0079c531659141344cd1fd0a4f28419497f9722a3daafe3b4186f6b6457e060405160405180910390a3806000806101000a81548173ffffffffffffffffffffffffffffffffffffffff021916908373ffffffffffffffffffffffffffffffffffffffff16021790555050565b600a60009054906101000a900473ffffffffffffffffffffffffffffffffffffffff1681565b6000809054906101000a900473ffffffffffffffffffffffffffffffffffffffff1673ffffffffffffffffffffffffffffffffffffffff163373ffffffffffffffffffffffffffffffffffffffff16141515610f3d57600080fd5b600860008273ffffffffffffffffffffffffffffffffffffffff1673ffffffffffffffffffffffffffffffffffffffff16815260200190815260200160002060009054906101000a900460ff1615610fff57600860008273ffffffffffffffffffffffffffffffffffffffff1673ffffffffffffffffffffffffffffffffffffffff16815260200190815260200160002060006101000a81549060ff02191690556000600954141515610ffe57600960008154809291906001900391905055505b5b50565b600042905090565b600a60009054906101000a900473ffffffffffffffffffffffffffffffffffffffff1673ffffffffffffffffffffffffffffffffffffffff166108fc829081150290604051600060405180830381858888f19350505050151561106c57600080fd5b505600a165627a7a7230582073d9da4a2102e1983e2851a9b281c01532e74e535c7e0864a331b97301f5f20c0029",
  "source": "import \"zeppelin-solidity/contracts/math/SafeMath.sol\";\nimport \"zeppelin-solidity/contracts/token/BasicToken.sol\";\nimport \"zeppelin-solidity/contracts/ownership/Ownable.sol\";\n\npragma solidity ^0.4.17;\n\ncontract PresaleOracles is Ownable {\n    uint256 public startTime;\n    uint256 public endTime;\n    uint256 public cap;\n    uint256 public rate;\n    bool public isInitialized = false;\n    uint256 public totalInvestedInWei;\n    mapping(address => uint256) public investorBalances;\n    mapping(address => bool) public whitelist;\n    uint256 public investorsLength;\n    address public vault;\n    // TESTED by Roman Storm\n    function () public payable {\n        buy();\n    }\n    //TESTED by Roman Storm\n    function Presale() public {\n    }\n    //TESTED by Roman Storm\n    function initialize(uint256 _startTime, uint256 _endTime, uint256 _cap, address _vault) public onlyOwner {\n        require(!isInitialized);\n        require(_startTime != 0);\n        require(_endTime != 0);\n        require(_endTime > _startTime);\n        require(_cap != 0);\n        require(_vault != 0x0);\n        startTime = _startTime;\n        endTime = _endTime;\n        cap = _cap;\n        isInitialized = true;\n        vault = _vault;\n    }\n    //TESTED by Roman Storm\n    function buy() public payable {\n        require(whitelist[msg.sender]);\n        require(msg.value > 0);\n        require(isInitialized);\n        require(getTime() >= startTime && getTime() <= endTime);\n        require(totalInvestedInWei + msg.value <= cap);\n        address investor = msg.sender;\n        investorBalances[investor] += msg.value;\n        totalInvestedInWei += msg.value;\n        forwardFunds(msg.value);\n    }\n    \n    //TESTED by Roman Storm\n    function forwardFunds(uint256 _amount) internal {\n        vault.transfer(_amount);\n    }\n    \n    function claimTokens(address _token) public onlyOwner {\n        if (_token == 0x0) {\n            owner.transfer(this.balance);\n            return;\n        }\n    \n        BasicToken token = BasicToken(_token);\n        uint256 balance = token.balanceOf(this);\n        token.transfer(owner, balance);\n    }\n\n    function whitelistInvestor(address _newInvestor) public onlyOwner {\n        if(!whitelist[_newInvestor]) {\n            whitelist[_newInvestor] = true;\n            investorsLength++;\n        }\n    }\n    function whitelistInvestors(address[] _investors) external onlyOwner {\n        require(_investors.length <= 250);\n        for(uint8 i=0; i<_investors.length;i++) {\n            address newInvestor = _investors[i];\n            if(!whitelist[newInvestor]) {\n                whitelist[newInvestor] = true;\n                investorsLength++;\n            }\n        }\n    }\n    function blacklistInvestor(address _investor) public onlyOwner {\n        if(whitelist[_investor]) {\n            delete whitelist[_investor];\n            if(investorsLength != 0) {\n                investorsLength--;\n            }\n        }\n    }\n\n    function getTime() internal view returns(uint256) {\n        return now;\n    }\n}",
  "sourcePath": "/Users/rstorm/repos/presale-oracles/contracts/PresaleOracles.sol",
  "compiler": {
    "name": "solc",
    "version": "0.4.18+commit.9cf6e910.Emscripten.clang"
  },
  "schemaVersion": "1.0.1",
  "updatedAt": "2017-11-10T02:14:36.871Z"
}