{
  "contractName": "PresaleOracles",
  "abi": [
    {
      "constant": true,
      "inputs": [],
      "name": "endTime",
      "outputs": [
        {
          "name": "",
          "type": "uint256"
        }
      ],
      "payable": false,
      "stateMutability": "view",
      "type": "function"
    },
    {
      "constant": true,
      "inputs": [],
      "name": "cap",
      "outputs": [
        {
          "name": "",
          "type": "uint256"
        }
      ],
      "payable": false,
      "stateMutability": "view",
      "type": "function"
    },
    {
      "constant": true,
      "inputs": [],
      "name": "isInitialized",
      "outputs": [
        {
          "name": "",
          "type": "bool"
        }
      ],
      "payable": false,
      "stateMutability": "view",
      "type": "function"
    },
    {
      "constant": false,
      "inputs": [],
      "name": "claimOwnership",
      "outputs": [
        {
          "name": "",
          "type": "bool"
        }
      ],
      "payable": false,
      "stateMutability": "nonpayable",
      "type": "function"
    },
    {
      "constant": false,
      "inputs": [],
      "name": "Presale",
      "outputs": [],
      "payable": false,
      "stateMutability": "nonpayable",
      "type": "function"
    },
    {
      "constant": false,
      "inputs": [
        {
          "name": "_investors",
          "type": "address[]"
        }
      ],
      "name": "whitelistInvestors",
      "outputs": [],
      "payable": false,
      "stateMutability": "nonpayable",
      "type": "function"
    },
    {
      "constant": true,
      "inputs": [],
      "name": "investorsLength",
      "outputs": [
        {
          "name": "",
          "type": "uint256"
        }
      ],
      "payable": false,
      "stateMutability": "view",
      "type": "function"
    },
    {
      "constant": true,
      "inputs": [
        {
          "name": "_amount",
          "type": "uint256"
        }
      ],
      "name": "isValidPurchase",
      "outputs": [
        {
          "name": "",
          "type": "bool"
        }
      ],
      "payable": false,
      "stateMutability": "view",
      "type": "function"
    },
    {
      "constant": true,
      "inputs": [],
      "name": "startTime",
      "outputs": [
        {
          "name": "",
          "type": "uint256"
        }
      ],
      "payable": false,
      "stateMutability": "view",
      "type": "function"
    },
    {
      "constant": true,
      "inputs": [],
      "name": "owner",
      "outputs": [
        {
          "name": "",
          "type": "address"
        }
      ],
      "payable": false,
      "stateMutability": "view",
      "type": "function"
    },
    {
      "constant": true,
      "inputs": [],
      "name": "minimumContribution",
      "outputs": [
        {
          "name": "",
          "type": "uint256"
        }
      ],
      "payable": false,
      "stateMutability": "view",
      "type": "function"
    },
    {
      "constant": true,
      "inputs": [
        {
          "name": "",
          "type": "address"
        }
      ],
      "name": "whitelist",
      "outputs": [
        {
          "name": "",
          "type": "bool"
        }
      ],
      "payable": false,
      "stateMutability": "view",
      "type": "function"
    },
    {
      "constant": false,
      "inputs": [],
      "name": "buy",
      "outputs": [],
      "payable": true,
      "stateMutability": "payable",
      "type": "function"
    },
    {
      "constant": true,
      "inputs": [
        {
          "name": "",
          "type": "address"
        }
      ],
      "name": "investorBalances",
      "outputs": [
        {
          "name": "",
          "type": "uint256"
        }
      ],
      "payable": false,
      "stateMutability": "view",
      "type": "function"
    },
    {
      "constant": false,
      "inputs": [
        {
          "name": "_newInvestor",
          "type": "address"
        }
      ],
      "name": "whitelistInvestor",
      "outputs": [],
      "payable": false,
      "stateMutability": "nonpayable",
      "type": "function"
    },
    {
      "constant": false,
      "inputs": [
        {
          "name": "_startTime",
          "type": "uint256"
        },
        {
          "name": "_endTime",
          "type": "uint256"
        },
        {
          "name": "_cap",
          "type": "uint256"
        },
        {
          "name": "_minimumContribution",
          "type": "uint256"
        },
        {
          "name": "_vault",
          "type": "address"
        }
      ],
      "name": "initialize",
      "outputs": [],
      "payable": false,
      "stateMutability": "nonpayable",
      "type": "function"
    },
    {
      "constant": false,
      "inputs": [
        {
          "name": "_token",
          "type": "address"
        }
      ],
      "name": "claimTokens",
      "outputs": [],
      "payable": false,
      "stateMutability": "nonpayable",
      "type": "function"
    },
    {
      "constant": true,
      "inputs": [],
      "name": "pendingOwner",
      "outputs": [
        {
          "name": "",
          "type": "address"
        }
      ],
      "payable": false,
      "stateMutability": "view",
      "type": "function"
    },
    {
      "constant": true,
      "inputs": [
        {
          "name": "newOwner",
          "type": "address"
        }
      ],
      "name": "totalInvestedInWei",
      "outputs": [
        {
          "name": "",
          "type": "uint256"
        }
      ],
      "payable": false,
      "stateMutability": "view",
      "type": "function"
    },
    {
      "constant": false,
      "inputs": [
        {
          "name": "newOwner",
          "type": "address"
        }
      ],
      "name": "transferOwnership",
      "outputs": [
        {
          "name": "",
          "type": "address"
        }
      ],
      "payable": false,
      "stateMutability": "nonpayable",
      "type": "function"
    },
    {
      "constant": true,
      "inputs": [
        {
          "name": "_investor",
          "type": "address"
        }
      ],
      "name": "vault",
      "outputs": [
        {
          "name": "",
          "type": "address"
        }
      ],
      "payable": false,
      "stateMutability": "view",
      "type": "function"
    },
    {
      "payable": false,
      "stateMutability": "nonpayable",
      "type": "function",
      "constant": false,
      "inputs": [
        {
          "name": "_investor",
          "type": "address"
        }
      ],
      "name": "blacklistInvestor",
      "outputs": []
    },
    {
      "anonymous": false,
      "inputs": [
        {
          "indexed": true,
          "name": "previousOwner",
          "type": "address"
        },
        {
          "indexed": true,
          "name": "newOwner",
          "type": "address"
        }
      ],
      "name": "OwnershipTransferred",
      "type": "fallback",
      "payable": true,
      "stateMutability": "payable"
    },
    {
      "anonymous": false,
      "inputs": [
        {
          "indexed": true,
          "name": "investor",
          "type": "address"
        },
        {
          "indexed": false,
          "name": "investorAmount",
          "type": "uint256"
        },
        {
          "indexed": false,
          "name": "investorTotal",
          "type": "uint256"
        },
        {
          "indexed": false,
          "name": "totalAmount",
          "type": "uint256"
        }
      ],
      "name": "Contribution",
      "type": "event"
    },
    {
      "anonymous": false,
      "inputs": [
        {
          "indexed": true,
          "name": "previousOwner",
          "type": "address"
        },
        {
          "indexed": true,
          "name": "newOwner",
          "type": "address"
        }
      ],
      "name": "OwnershipTransferred",
      "type": "event"
    }
  ],
  "bytecode": "0x60606040526000600a60146101000a81548160ff021916908315150217905550336000806101000a81548173ffffffffffffffffffffffffffffffffffffffff021916908373ffffffffffffffffffffffffffffffffffffffff1602179055506113ea8061006e6000396000f300606060405260043610610128576000357c0100000000000000000000000000000000000000000000000000000000900463ffffffff1680633197cbb614610132578063355274ea1461015b578063392e53cd146101845780634e71e0c8146101b15780635036d610146101c65780635613680a146101db578063594337a91461020957806361e214d81461023257806378e979251461026d5780638da5cb5b14610296578063937e09b1146102eb5780639b19251a14610314578063a6f2ae3a14610365578063b29a61c11461036f578063c430bcda146103bc578063ccd65296146103f5578063df8de3e714610452578063e30c39781461048b578063f117c924146104e0578063f2fde38b14610509578063fbfa77cf14610542578063ffc1b03814610597575b6101306105d0565b005b341561013d57600080fd5b610145610791565b6040518082815260200191505060405180910390f35b341561016657600080fd5b61016e610797565b6040518082815260200191505060405180910390f35b341561018f57600080fd5b61019761079d565b604051808215151515815260200191505060405180910390f35b34156101bc57600080fd5b6101c46107b0565b005b34156101d157600080fd5b6101d961094f565b005b34156101e657600080fd5b61020760048080359060200190820180359060200191909192905050610951565b005b341561021457600080fd5b61021c610ad6565b6040518082815260200191505060405180910390f35b341561023d57600080fd5b6102536004808035906020019091905050610adc565b604051808215151515815260200191505060405180910390f35b341561027857600080fd5b610280610b7a565b6040518082815260200191505060405180910390f35b34156102a157600080fd5b6102a9610b80565b604051808273ffffffffffffffffffffffffffffffffffffffff1673ffffffffffffffffffffffffffffffffffffffff16815260200191505060405180910390f35b34156102f657600080fd5b6102fe610ba5565b6040518082815260200191505060405180910390f35b341561031f57600080fd5b61034b600480803573ffffffffffffffffffffffffffffffffffffffff16906020019091905050610bab565b604051808215151515815260200191505060405180910390f35b61036d6105d0565b005b341561037a57600080fd5b6103a6600480803573ffffffffffffffffffffffffffffffffffffffff16906020019091905050610bcb565b6040518082815260200191505060405180910390f35b34156103c757600080fd5b6103f3600480803573ffffffffffffffffffffffffffffffffffffffff16906020019091905050610be3565b005b341561040057600080fd5b610450600480803590602001909190803590602001909190803590602001909190803590602001909190803573ffffffffffffffffffffffffffffffffffffffff16906020019091905050610cff565b005b341561045d57600080fd5b610489600480803573ffffffffffffffffffffffffffffffffffffffff16906020019091905050610e77565b005b341561049657600080fd5b61049e611122565b604051808273ffffffffffffffffffffffffffffffffffffffff1673ffffffffffffffffffffffffffffffffffffffff16815260200191505060405180910390f35b34156104eb57600080fd5b6104f3611148565b6040518082815260200191505060405180910390f35b341561051457600080fd5b610540600480803573ffffffffffffffffffffffffffffffffffffffff1690602001909190505061114e565b005b341561054d57600080fd5b6105556111ed565b604051808273ffffffffffffffffffffffffffffffffffffffff1673ffffffffffffffffffffffffffffffffffffffff16815260200191505060405180910390f35b34156105a257600080fd5b6105ce600480803573ffffffffffffffffffffffffffffffffffffffff16906020019091905050611213565b005b6000600860003373ffffffffffffffffffffffffffffffffffffffff1673ffffffffffffffffffffffffffffffffffffffff16815260200190815260200160002060009054906101000a900460ff16151561062a57600080fd5b61063334610adc565b151561063e57600080fd5b600a60149054906101000a900460ff16151561065957600080fd5b600254610664611333565b1015801561067b5750600354610678611333565b11155b151561068657600080fd5b33905034600760008373ffffffffffffffffffffffffffffffffffffffff1673ffffffffffffffffffffffffffffffffffffffff16815260200190815260200160002060008282540192505081905550346005600082825401925050819055506106ef3461133b565b3373ffffffffffffffffffffffffffffffffffffffff167f460eb5f4fd2327fac159ebd2dfcf744a60eed1a83dd95367e1811f166396748e34600760008573ffffffffffffffffffffffffffffffffffffffff1673ffffffffffffffffffffffffffffffffffffffff1681526020019081526020016000205460055460405180848152602001838152602001828152602001935050505060405180910390a250565b60035481565b60045481565b600a60149054906101000a900460ff1681565b600160009054906101000a900473ffffffffffffffffffffffffffffffffffffffff1673ffffffffffffffffffffffffffffffffffffffff163373ffffffffffffffffffffffffffffffffffffffff1614151561080c57600080fd5b600160009054906101000a900473ffffffffffffffffffffffffffffffffffffffff1673ffffffffffffffffffffffffffffffffffffffff166000809054906101000a900473ffffffffffffffffffffffffffffffffffffffff1673ffffffffffffffffffffffffffffffffffffffff167f8be0079c531659141344cd1fd0a4f28419497f9722a3daafe3b4186f6b6457e060405160405180910390a3600160009054906101000a900473ffffffffffffffffffffffffffffffffffffffff166000806101000a81548173ffffffffffffffffffffffffffffffffffffffff021916908373ffffffffffffffffffffffffffffffffffffffff1602179055506000600160006101000a81548173ffffffffffffffffffffffffffffffffffffffff021916908373ffffffffffffffffffffffffffffffffffffffff160217905550565b565b6000806000809054906101000a900473ffffffffffffffffffffffffffffffffffffffff1673ffffffffffffffffffffffffffffffffffffffff163373ffffffffffffffffffffffffffffffffffffffff161415156109af57600080fd5b60fa84849050111515156109c257600080fd5b600091505b838390508260ff161015610ad05783838360ff1681811015156109e657fe5b9050602002013573ffffffffffffffffffffffffffffffffffffffff169050600860008273ffffffffffffffffffffffffffffffffffffffff1673ffffffffffffffffffffffffffffffffffffffff16815260200190815260200160002060009054906101000a900460ff161515610ac3576001600860008373ffffffffffffffffffffffffffffffffffffffff1673ffffffffffffffffffffffffffffffffffffffff16815260200190815260200160002060006101000a81548160ff0219169083151502179055506009600081548092919060010191905055505b81806001019250506109c7565b50505050565b60095481565b600080600080600085119250600654610b3d86600760003373ffffffffffffffffffffffffffffffffffffffff1673ffffffffffffffffffffffffffffffffffffffff168152602001908152602001600020546113a090919063ffffffff16565b10159150600454610b59866005546113a090919063ffffffff16565b11159050818015610b675750805b8015610b705750825b9350505050919050565b60025481565b6000809054906101000a900473ffffffffffffffffffffffffffffffffffffffff1681565b60065481565b60086020528060005260406000206000915054906101000a900460ff1681565b60076020528060005260406000206000915090505481565b6000809054906101000a900473ffffffffffffffffffffffffffffffffffffffff1673ffffffffffffffffffffffffffffffffffffffff163373ffffffffffffffffffffffffffffffffffffffff16141515610c3e57600080fd5b600860008273ffffffffffffffffffffffffffffffffffffffff1673ffffffffffffffffffffffffffffffffffffffff16815260200190815260200160002060009054906101000a900460ff161515610cfc576001600860008373ffffffffffffffffffffffffffffffffffffffff1673ffffffffffffffffffffffffffffffffffffffff16815260200190815260200160002060006101000a81548160ff0219169083151502179055506009600081548092919060010191905055505b50565b6000809054906101000a900473ffffffffffffffffffffffffffffffffffffffff1673ffffffffffffffffffffffffffffffffffffffff163373ffffffffffffffffffffffffffffffffffffffff16141515610d5a57600080fd5b600a60149054906101000a900460ff16151515610d7657600080fd5b60008514151515610d8657600080fd5b60008414151515610d9657600080fd5b8484111515610da457600080fd5b60008314151515610db457600080fd5b60008214151515610dc457600080fd5b60008173ffffffffffffffffffffffffffffffffffffffff1614151515610dea57600080fd5b8183111515610df857600080fd5b8460028190555083600381905550826004819055506001600a60146101000a81548160ff0219169083151502179055508160068190555080600a60006101000a81548173ffffffffffffffffffffffffffffffffffffffff021916908373ffffffffffffffffffffffffffffffffffffffff1602179055505050505050565b6000806000809054906101000a900473ffffffffffffffffffffffffffffffffffffffff1673ffffffffffffffffffffffffffffffffffffffff163373ffffffffffffffffffffffffffffffffffffffff16141515610ed557600080fd5b60008373ffffffffffffffffffffffffffffffffffffffff161415610f71576000809054906101000a900473ffffffffffffffffffffffffffffffffffffffff1673ffffffffffffffffffffffffffffffffffffffff166108fc3073ffffffffffffffffffffffffffffffffffffffff16319081150290604051600060405180830381858888f193505050501515610f6c57600080fd5b61111d565b8291508173ffffffffffffffffffffffffffffffffffffffff166370a08231306000604051602001526040518263ffffffff167c0100000000000000000000000000000000000000000000000000000000028152600401808273ffffffffffffffffffffffffffffffffffffffff1673ffffffffffffffffffffffffffffffffffffffff168152602001915050602060405180830381600087803b151561101757600080fd5b6102c65a03f1151561102857600080fd5b5050506040518051905090508173ffffffffffffffffffffffffffffffffffffffff1663a9059cbb6000809054906101000a900473ffffffffffffffffffffffffffffffffffffffff16836000604051602001526040518363ffffffff167c0100000000000000000000000000000000000000000000000000000000028152600401808373ffffffffffffffffffffffffffffffffffffffff1673ffffffffffffffffffffffffffffffffffffffff16815260200182815260200192505050602060405180830381600087803b151561110057600080fd5b6102c65a03f1151561111157600080fd5b50505060405180519050505b505050565b600160009054906101000a900473ffffffffffffffffffffffffffffffffffffffff1681565b60055481565b6000809054906101000a900473ffffffffffffffffffffffffffffffffffffffff1673ffffffffffffffffffffffffffffffffffffffff163373ffffffffffffffffffffffffffffffffffffffff161415156111a957600080fd5b80600160006101000a81548173ffffffffffffffffffffffffffffffffffffffff021916908373ffffffffffffffffffffffffffffffffffffffff16021790555050565b600a60009054906101000a900473ffffffffffffffffffffffffffffffffffffffff1681565b6000809054906101000a900473ffffffffffffffffffffffffffffffffffffffff1673ffffffffffffffffffffffffffffffffffffffff163373ffffffffffffffffffffffffffffffffffffffff1614151561126e57600080fd5b600860008273ffffffffffffffffffffffffffffffffffffffff1673ffffffffffffffffffffffffffffffffffffffff16815260200190815260200160002060009054906101000a900460ff161561133057600860008273ffffffffffffffffffffffffffffffffffffffff1673ffffffffffffffffffffffffffffffffffffffff16815260200190815260200160002060006101000a81549060ff0219169055600060095414151561132f57600960008154809291906001900391905055505b5b50565b600042905090565b600a60009054906101000a900473ffffffffffffffffffffffffffffffffffffffff1673ffffffffffffffffffffffffffffffffffffffff166108fc829081150290604051600060405180830381858888f19350505050151561139d57600080fd5b50565b60008082840190508381101515156113b457fe5b80915050929150505600a165627a7a7230582091b2492dfa1daa588032e8857f4fc80acbd84ca307e27de34793cdc6fa85706f0029",
  "source": "import \"zeppelin-solidity/contracts/math/SafeMath.sol\";\nimport \"zeppelin-solidity/contracts/token/ERC20Basic.sol\";\nimport \"zeppelin-solidity/contracts/ownership/Claimable.sol\";\n\npragma solidity ^0.4.18;\n\ncontract PresaleOracles is Claimable {\n/*\n * PresaleOracles\n * Simple Presale contract\n * built by github.com/rstormsf Roman Storm\n */\n    using SafeMath for uint256;\n    uint256 public startTime;\n    uint256 public endTime;\n    uint256 public cap;\n    uint256 public totalInvestedInWei;\n    uint256 public minimumContribution;\n    mapping(address => uint256) public investorBalances;\n    mapping(address => bool) public whitelist;\n    uint256 public investorsLength;\n    address public vault;\n    bool public isInitialized = false;\n    // TESTED by Roman Storm\n    function () public payable {\n        buy();\n    }\n    //TESTED by Roman Storm\n    function Presale() public {\n    }\n    //TESTED by Roman Storm\n    function initialize(uint256 _startTime, uint256 _endTime, uint256 _cap, uint256 _minimumContribution, address _vault) public onlyOwner {\n        require(!isInitialized);\n        require(_startTime != 0);\n        require(_endTime != 0);\n        require(_endTime > _startTime);\n        require(_cap != 0);\n        require(_minimumContribution != 0);\n        require(_vault != 0x0);\n        require(_cap > _minimumContribution);\n        startTime = _startTime;\n        endTime = _endTime;\n        cap = _cap;\n        isInitialized = true;\n        minimumContribution = _minimumContribution;\n        vault = _vault;\n    }\n    //TESTED by Roman Storm\n    event Contribution(address indexed investor, uint256 investorAmount, uint256 investorTotal, uint256 totalAmount);\n    function buy() public payable {\n        require(whitelist[msg.sender]);\n        require(isValidPurchase(msg.value));\n        require(isInitialized);\n        require(getTime() >= startTime && getTime() <= endTime);\n        address investor = msg.sender;\n        investorBalances[investor] += msg.value;\n        totalInvestedInWei += msg.value;\n        forwardFunds(msg.value);\n        Contribution(msg.sender, msg.value, investorBalances[investor], totalInvestedInWei);\n    }\n    \n    //TESTED by Roman Storm\n    function forwardFunds(uint256 _amount) internal {\n        vault.transfer(_amount);\n    }\n    //TESTED by Roman Storm\n    function claimTokens(address _token) public onlyOwner {\n        if (_token == 0x0) {\n            owner.transfer(this.balance);\n            return;\n        }\n    \n        ERC20Basic token = ERC20Basic(_token);\n        uint256 balance = token.balanceOf(this);\n        token.transfer(owner, balance);\n    }\n\n    function getTime() internal view returns(uint256) {\n        return now;\n    }\n    //TESTED by Roman Storm\n    function isValidPurchase(uint256 _amount) public view returns(bool) {\n        bool nonZero = _amount > 0;\n        bool hasMinimumAmount = investorBalances[msg.sender].add(_amount) >= minimumContribution;\n        bool withinCap = totalInvestedInWei.add(_amount) <= cap;\n        return hasMinimumAmount && withinCap && nonZero;\n    }\n    //TESTED by Roman Storm\n    function whitelistInvestor(address _newInvestor) public onlyOwner {\n        if(!whitelist[_newInvestor]) {\n            whitelist[_newInvestor] = true;\n            investorsLength++;\n        }\n    }\n    //TESTED by Roman Storm\n    function whitelistInvestors(address[] _investors) external onlyOwner {\n        require(_investors.length <= 250);\n        for(uint8 i=0; i<_investors.length;i++) {\n            address newInvestor = _investors[i];\n            if(!whitelist[newInvestor]) {\n                whitelist[newInvestor] = true;\n                investorsLength++;\n            }\n        }\n    }\n    function blacklistInvestor(address _investor) public onlyOwner {\n        if(whitelist[_investor]) {\n            delete whitelist[_investor];\n            if(investorsLength != 0) {\n                investorsLength--;\n            }\n        }\n    }\n}",
  "sourcePath": "/Users/rstorm/repos/presale-oracles/contracts/PresaleOracles.sol",
  "compiler": {
    "name": "solc",
    "version": "0.4.18+commit.9cf6e910.Emscripten.clang"
  },
  "schemaVersion": "1.0.1",
  "updatedAt": "2017-11-15T06:13:42.801Z"
}